:020000040000FA
:10000000D85D0010F5010000FD010000FF010000B7
:1000100001020000030200000502000000000000D1
:1000200000000000000000000000000007020000C7
:1000300009020000000000000B020000A7A9000058
:10004000E18E00000F0200000F0200000F0200000E
:100050000F020000191100000F0200000F02000043
:10006000DB1000000F020000B51A0000511C000058
:10007000F91D00000F0200000F0200000F02000037
:100080000F0200000F02000099060000B9060000F0
:10009000D9060000F90600006B9100000F02000075
:1000A000A1B600000F0200000F0200000F020000C6
:1000B0000F0200000F0200000F0200000F020000FC
:1000C0000F0200000F0200000F02000000F002F813
:1000D00000F081F80AA090E8000C82448344AAF161
:1000E0000107DA4501D100F076F8AFF2090EBAE85F
:1000F0000F0013F0010F18BFFB1A43F0010318475C
:100100008C0B0100AC0B01000A444FF0000C10F8FE
:10011000013B13F0070408BF10F8014B1D1108BF85
:1001200010F8015B641E05D010F8016B641E01F825
:10013000016BF9D113F0080F1EBF10F8014BAD1C75
:100140000C1B09D16D1E58BF01F801CBFAD505E093
:1001500014F8016B01F8016B6D1EF9D59142D6D3ED
:10016000704700000023002400250026103A28BF15
:1001700078C1FBD8520728BF30C148BF0B60704719
:10018000662910F0CD83672910F0CA8364290BF02B
:100190004D8563290CF03D8473290CF042840020C6
:1001A00070471FB59DE803000CF062F90CF044F9AC
:1001B0000400002000210FF0CFFA401C60600020F6
:1001C00000210FF0DFFAE0600DF09EF81FBD10B5C2
:1001D0000DF003F910BD0DF03AF91146FFF7E1FFFC
:1001E00008F0CDFA0DF0A0FC03B4FFF7F0FF03BC5C
:1001F00001F0B8FA0948804709480047FEE7FEE7E2
:10020000FEE7FEE7FEE7FEE7FEE7FEE7FEE7FEE7C6
:1002100004480549054A064B704700002D040000BC
:10022000CD000000D8150010D85D0010D855001082
:10023000D85500100021002200BF05E0002200E098
:10024000521C172AFCD3491C8142F7D3704730B5A2
:100250000446002504E04FF47A70FFF7EBFF6D1CB5
:10026000A542F8D330BD30B50446002504E04FF474
:100270007A70FFF7ECFF6D1CA542F8D330BD7047D4
:1002800010B50CF0D9F8001D10BD00BFCDF4000072
:10029000004870477C14001070B506460CF0C8F892
:1002A000056806F10B0020F00704B4429CBF002053
:1002B00070BD2B466A68BAB11068A04210D304F131
:1002C000080188423CBF5068586007D35168101934
:1002D00041601168091B016058601460101D70BDF9
:1002E00013465268002AE7D1214628460CF0ACF8A4
:1002F0000028DED170BD704770477047FFFFFFFFD9
:100300009B480068C0F3016003285DD198488430A1
:10031000006800F0030030B1012820D0022839D055
:10032000032850D100E000BF91480068C0F30E00E0
:10033000401C40008F4948438D498839D1F88810C6
:10034000C1F30741491CB0FBF1F189487C300068DA
:10035000C0B2401CB1FBF0F08749086033E084482C
:100360000068C0F30E00401C4000844948438049A7
:100370008839D1F88810C1F30741491CB0FBF1F16D
:100380007B487C300068C0B2401CB1FBF0F07A4979
:10039000086018E076480068C0F30E00401C0104B5
:1003A00073488838D0F88800C0F30740401CB1FB80
:1003B000F0F16F487C300068C0B2401CB1FBF0F037
:1003C0006D49086000BF30E069488430006800F083
:1003D000030030B1012810D0022819D0032823D1FE
:1003E00000E000BF62487C300068C0B2401C614938
:1003F000B1FBF0F06049086016E05D487C300068B1
:10040000C0B2401C5D49B1FBF0F05B4908600BE0F5
:1004100057487C300068C0B2401C4FF40041B1FB2B
:10042000F0F05549086000BF00BF70474FF04070C2
:1004300001142022524B1A604D4A883AD2F8A0216A
:1004400002F0200232B100BF4D4A126802F04002B1
:10045000002AF9D00322464B7C331A60494A444BA8
:10046000883BC3F8A821484A454B0C331A60012247
:100470003F4B84331A60454A3D4B1B1F1A60AA222A
:100480003B4B1B1D1A6055221A600122384B083B5A
:100490001A60AA22364B1B1D1A605522344B883B2A
:1004A000C3F88C2000BF324A126802F08062002A32
:1004B000F9D003222E4B083B1A60AA222C4B883B12
:1004C000C3F88C2055222A4B1B1D1A6000BF284AF6
:1004D000126802F04072B2F1407FF8D10222244B40
:1004E0001C331A60AA22224B883BC3F8AC20552249
:1004F0001F4B24331A6001221D4B18331A60AA22A5
:100500001B4B24331A605522194B883BC3F8AC208F
:1005100000BF174A2032126802F48062002AF8D025
:100520000322134B18331A60AA22114B883BC3F8DD
:10053000AC2055220E4B24331A6000BF0C4A2032E7
:10054000126802F44072B2F5407FF7D14FF4001206
:10055000074B3C331A605213054B883BC3F8C82144
:1005600044F23A021A600022094B1A6070470000F8
:1005700088C00F4000093D00000000100024F40076
:10058000A0C10F4055115155155445541800010094
:1005900008ED00E070B504460D461646042C6ADAF4
:1005A0005D4901EBC4014879012100F0BBF85A49CB
:1005B00001EBC40191F9040000F01F0201219140F8
:1005C0004209920002F1E022C2F8001100BF524835
:1005D00040F8345036B1012E16D0022E26D0032E0C
:1005E00048D135E04D4801680120A04081434C4886
:1005F000C0F848114948001D00680121A140884306
:100600004749C1F84C0135E0444800680121A14048
:1006100088434349C1F848014048001D0068012152
:10062000A14008433E49C1F84C0123E03B48006823
:100630000121A14008433A49C1F848013748001D4B
:1006400000680121A14088433549C1F84C0111E0FF
:10065000324800680121A14008433149C1F84801EE
:100660002E48001D01680120A04001432C48C0F81D
:100670004C1100BF00BF70BD10B50446042C0ADA4F
:10068000254901EBC4014879002100F04BF8002016
:10069000214941F8340010BD10B5204808380068E1
:1006A00040F001001E49C1F840011B48006810B12C
:1006B00019490868804710BD10B518480838006807
:1006C00040F002001649C1F840011348806810B19B
:1006D00011498868804710BD10B510480838006877
:1006E00040F004000E49C1F840010B48006910B108
:1006F00009490869804710BD10B5084808380068E6
:1007000040F008000649C1F840010348806910B173
:1007100001498869804710BD0800001048C10F409A
:1007200000C00F4030B50A46A0281CDA032A1AD8A8
:10073000431100F01F005C06230E102804DB5C1C34
:10074000E3B2A0F11004E0B24406200E2F4C04EBFB
:100750008301032585400C68AC430C6002FA00F568
:100760000C682C430C6030BD30B50A46A02811DA65
:10077000431100F01F00264C04EB43112AB10C6812
:10078000012585402C430C6004E00C680125854060
:10079000AC430C6030BD30B50A46A02811DA4311D5
:1007A00000F01F001A4C04EB43112AB18C6901259B
:1007B00085402C438C6104E0CC69012585402C43A5
:1007C000CC6130BD10B5A0280ADA421100F01F003C
:1007D0000F4B03EB42114B690124844063404B6192
:1007E00010BD30B501460020A0290EDA4A1101F0F3
:1007F0001F01074C04EB42135C6901258D402C401E
:100800000CB1012400E00024204630BD00C00240AD
:1008100000C0092010B598B00024FDA2D2E9003133
:10082000D2E90202CDE91431CDE9160200BF05E09C
:1008300014A8015DFA4807F0A8FA641C102CF7DB35
:10084000642008F07FFBF7A30FCBCDE91223CDE99D
:100850001001002405E010A8015DF14807F095FAA9
:10086000641C102CF7DB642008F06CFBF1A3D3E9C7
:100870000020D3E90213CDE90E13CDE90C200024AA
:1008800005E00CA8015DE64807F07FFA641C102C17
:10089000F7DB642008F056FBEAA30FCBCDE90A236F
:1008A000CDE90801002405E008A8015DDC4807F057
:1008B0006CFA641C102CF7DB642008F043FBE5A302
:1008C000D3E90012D3E90203CDE90603CDE904120E
:1008D000002405E004A8015DD14807F056FA641C25
:1008E0000E2CF7DB642008F02DFB642008F02AFBB7
:1008F000DCA30FCB8DE80F00002405E01DF80410E9
:10090000C74807F042FA641C102CF7DB18B010BD82
:1009100010B5FFF77FFFD7A00BF016F910BD704799
:100920001FB5642008F00EFBDCA30FCB8DE80F0091
:10093000002405E01DF80410B94807F026FA641CED
:10094000102CF7DB4FF47A7008F0FCFAD7A00BF00C
:10095000FBF81FBD70B505462C46242C14D1002091
:10096000DB490860DB48006800EBC00101EB401088
:10097000D94901EB4000D64909684454D44800687D
:10098000401CD349086051E02A2C36D1D049086870
:100990000BE02A21CF4A126802EBC20303EB42129A
:1009A000CD4B03EB42021154401C5228F1DB0020D6
:1009B000C7490860C7480068401CC6490860084627
:1009C0000068022832DB00200860A422C249C34824
:1009D0000BF00AFC00200AE0002100EBC00202EB51
:1009E0004012BE4B03EB420282F85110401C022819
:1009F000F2DB0120BA49086018E0B648006800EB55
:100A0000C00101EB4010B44901EB4000B049096856
:100A10004454AF480068401CAD490860084600686F
:100A2000532803DB00200860401E70BD0020FCE757
:100A30002DE9FF4107463C460026002511E004EB66
:100A4000C40000EB4410A54901EB4000405D2C2898
:100A500003D1E8B20DF80600761C0E2E00DD02E090
:100A60006D1C522DEBDB00BF9DF801009DF800309E
:100A7000C01A421E04EBC40000EB4410974B03EB7A
:100A800040039DF80000401C191896480BF0ACFB81
:100A90000020944988729DF802009DF80130C01A28
:100AA000421E04EBC40000EB44108C4B03EB4003EC
:100AB0009DF80100401C19188B480BF095FB002095
:100AC000894948729DF804009DF80330C01A421EFF
:100AD00004EBC40000EB4410804B03EB40039DF893
:100AE0000300401C191881480BF07EFB00207F4951
:100AF00088729DF806009DF80530C01A421E04EB6E
:100B0000C40000EB4410754B03EB40039DF8050057
:100B1000401C191876480BF067FB00207449487098
:100B20009DF809009DF80830C01A421E04EBC4006D
:100B300000EB4410694B03EB40039DF80800401C98
:100B400019186C480BF050FB00206A494871BDE849
:100B5000FF812DE9FF4107463D460026002411E0B4
:100B600005EBC50000EB45105C4901EB4000005D62
:100B70002C2803D1E0B20DF80600761C0E2E00DD05
:100B800002E0641C522CEBDB00BF9DF807009DF8CF
:100B90000630C01A421E05EBC50000EB45104F4B56
:100BA00003EB40039DF80600401C191852480BF057
:100BB0001BFB0020504948719DF809009DF8083042
:100BC000C01A421E05EBC50000EB4510434B03EB7A
:100BD00040039DF80800401C191848480BF004FB1E
:100BE000002046498871BDE8FF8110B50024EFE080
:100BF00004EBC40000EB4410384911F8100024281D
:100C00007ED104EBC40000EB441001EB400078E01F
:100C1000B56206010800F001000000000000002A93
:100C200000C00940B56206010800F00200000000A3
:100C300000000131B56206010800F0030000000069
:100C400000000238B56206010800F005000000004F
:100C500000000446B56206080600640001000100B9
:100C60007A120000B56206160800030703000000B0
:100C7000000031E547505320686173206265656E5E
:100C80002073756363657366756C6C7920696E6932
:100C90007469616C697365640A000000B5620241A1
:100CA000080000000000020000004D3B47505320A8
:100CB000506F776572204F6666204D6F64652041E6
:100CC00063746976617465642E2E2E0A000000003C
:100CD0002C0000102800001014020010B8020010B0
:100CE00044010010340000103F0000104A000010C2
:100CF0005600001065000010580000105E00001043
:100D000045E04078472862D104EBC40000EB441072
:100D100001EB4000807850281AD004EBC40000EBAF
:100D2000441001EB400080784C2811D004EBC40043
:100D300000EB441001EB40008078532808D004EB0E
:100D4000C40000EB441001EB400080784E283ED1F7
:100D500004EBC40000EB44101F4901EB4000C078D5
:100D6000472815D104EBC40000EB441001EB400010
:100D7000007947282BD104EBC40000EB441001EBB1
:100D800040004079412822D12046FFF751FE1EE065
:100D900004EBC40000EB44100F4901EB4000C078A5
:100DA000522814D104EBC40000EB441001EB4000C6
:100DB00000794D280BD104EBC40000EB441001EB8B
:100DC00040004079432802D12046FFF7C2FE641C50
:100DD000022CFFF60DAF10BDB802001070B505462D
:100DE0000C4600220121284607F079F82DE004EB9B
:100DF0008402FE4800EB8200D0F8062004EB840356
:100E0000FA4800EB8300408811180023012228468D
:100E100006F0CAFFC0B104EB8401F44800EB810086
:100E20004088401C04EB8402F04901EB8201898870
:100E300090FBF1F201FB120081B204EB8402EB485B
:100E400000EB8200418000E00DE004EB8401E74804
:100E500000EB8100018804EB8402E44800EB82008F
:100E600040888142C3D100BF04EB8401DF4800EB1E
:100E70008100018804EB8402DC4800EB820040889A
:100E8000814218D100220121284607F028F8D748CE
:100E9000401E01780120A0408143D448401E0170CB
:100EA00024B1012C03D0022C03D101E002E001E0C7
:100EB00000E000BF0DE0CD48401E00780121A140B8
:100EC0000843CA49491E087001221146284607F006
:100ED00006F870BD70B5054600220121C44806F031
:100EE000FEFFC248401EB0F83D10B0F83F008142FE
:100EF00001D100241BE0BD48401EB0F83D10B0F801
:100F00003F00814207DDB948401EB0F83D10B0F8FF
:100F10003F000C1A0BE0B548401EB0F84110B0F885
:100F20003F00091AB148401EB0F83D000C18AF4808
:100F3000401EB0F84100401EA04207D101221146D8
:100F4000AB4806F0CCFF4FF0FF3070BDA748401E05
:100F5000D0F84320B0F83D001554A448401EB0F826
:100F60003D00401C81B2A148401EA0F83D10B0F8E1
:100F7000410091FBF0F200FB121081B29B48401E31
:100F8000A0F83D10007800F0080050B900BF984864
:100F900006F0ECFF0128FAD003219548FFF71EFF69
:100FA00004E001221146924806F099FF0020CCE7A8
:100FB0002DE9F84380460C4600277AE00023012201
:100FC0006946404606F03AFF064606B973E004EB70
:100FD0008401864800EB8100818904EB8402834808
:100FE00000EB8200C08991FBF0F200FB121204EBCF
:100FF00084017E4800EB81004089401C04EB84039F
:101000007A4901EB8301C98990FBF1F301FB1300DD
:10101000824226D09DF8001004EB8402734800EB56
:101020008200026904EB8403704800EB830040896E
:10103000115404EB84016D4800EB81004089401C91
:1010400004EB8402694901EB8201C98990FBF1F24A
:1010500001FB120081B204EB8402644800EB8200C1
:10106000418154B99DF8000007F012FE6148006804
:1010700018B19DF80000FFF72DFF032C18D15D4833
:10108000006840B15C48006890B99DF800105BA012
:101090000AF05AFD0CE09DF80000FFF75BFC0546E6
:1010A000681C28B95648006810B156A00AF04CFDDB
:1010B0007F1C102F82DB00BFBDE8F883014621B101
:1010C000012904D0022906D103E05648704756484A
:1010D000FCE75648FAE74648F8E770B5444806F09A
:1010E0003FFF054605F00E04062C06D1404806F0E9
:1010F0002FFF064606F09E0600BF042C01D00C2CE4
:1011000003D103213A48FFF753FF022C03D10321F7
:101110003748FFF763FE70BD70B5424806F020FF08
:10112000054605F00E04062C06D13E4806F010FFD9
:10113000064606F09E0600BF042C01D00C2C03D1FD
:1011400000213848FFF734FF022C03D10021354835
:10115000FFF744FE70BDFEB504460D46164604B9C1
:1011600000BF012C00D107E0022C00D104E0032CC9
:1011700000D100BF032C00DDFEBD2046FFF79EFF1F
:10118000074601A806F0F8FD0195012E06D0022EB3
:1011900008D0032E0AD0042E10D10BE001208DF8C8
:1011A00008000FE002208DF808000BE003208DF806
:1011B000080007E004208DF8080003E000208DF807
:1011C000080000BF00BF01A9384606F0F4FC6846DD
:1011D00006F009FF03208DF803006946384606F043
:1011E000CEFE0248401E0078012121E05D03001080
:1011F00000C00940500100106C0100102563000080
:10120000480100104552524F522D5265634461749B
:1012100061546F47505362756666657220666169F6
:101220006C65640000C0004000000140008009407F
:10123000A1408843CB490870002104EB8402C948CF
:10124000401C00EB8200018004EB8402C548401C76
:1012500000EB8200418004EB8402C248401C00EB9A
:101260008200418104EB8402BE48401C00EB8200F6
:1012700081810121384606F047FD012200213846D0
:1012800006F02DFE01220221384606F028FE24B188
:10129000012C0AD0022C16D10EE001231A46AFF21F
:1012A0008711152000F071F915E001231A46AE49A7
:1012B000162000F06AF90EE001231A46AB49172008
:1012C00000F063F907E001231A46AFF2F11118208C
:1012D00000F05BF900BF00BF00BF4DE70020A1494F
:1012E0000870A1F8010000219E48A0F803104FF4F7
:1012F0008071A0F805109E49C0F807100021A0F8E1
:101300000B10A0F80D108021A0F80F109949C0F81B
:1013100011100021A0F83D10A0F83F104FF400710B
:10132000A0F841109449C0F843100021A0F84710DC
:10133000A0F849104FF40071A0F84B108F49C0F885
:101340004D10704770B50546002201218C4806F00B
:10135000C6FD8448B0F80110B0F80300814201D105
:10136000002417E07F48B0F80110B0F80300814274
:1013700006DD7C48B0F80110B0F803000C1A09E053
:101380007848B0F80510B0F80300081A7549B1F8AC
:10139000011044187348B0F80500401EA04207D160
:1013A00001221146764806F09AFD4FF0FF3070BDDD
:1013B0006C48D0F807006B4AB2F8012085546948A0
:1013C000B0F80100401C81B26648A0F80110B0F8E6
:1013D000050091FBF0F200FB12106249A1F8010038
:1013E0000846007800F0010050B900BF644806F0DC
:1013F000BDFD0128FAD000216148FFF7EFFC04E0B1
:10140000012211465E4806F06AFD0020CFE75548EC
:10141000B0F80B20B0F80D00824207D100225148ED
:10142000A0F80B20A0F80D20501E70474D48D0F8B2
:101430001120B0F80D00115C4A48B0F80D00401CB6
:1014400082B24848A0F80D20B0F80F0092FBF0F3EC
:1014500000FB132082B24348A0F80D200846E4E7C1
:1014600010B503E000214648FFF7B8FC3D48B0F84E
:101470000110B0F803008142F4D110BD10B504464C
:101480002046FFF75FFFFFF7EBFF10BD3548B0F8D0
:101490000110B0F80300814201D101207047002003
:1014A000FCE73048B0F80B10B0F80D00814201D1D4
:1014B000012070470020FCE72A48B0F84720B0F828
:1014C0004900824207D100222648A0F84720A0F810
:1014D0004920501E70472348D0F84D20B0F84900ED
:1014E000115C2048B0F84900401C82B21D48A0F8A9
:1014F0004920B0F84B0092FBF0F300FB132082B2BE
:101500001848A0F849200846E4E710B503E0032195
:101510001C48FFF763FC1348B0F83D10B0F83F00DB
:101520008142F4D110BD10B504462046FFF7D2FC2D
:10153000FFF7EBFF10BD0B48B0F83D10B0F83F00CF
:10154000814201D1012070470020FCE70548B0F836
:101550004710B0F84900814201D1012070470020B6
:10156000FCE700005C0300100F0200000F02000007
:10157000AD030010AD0400102D0500102D07001064
:1015800000C0004000C009407047F0B50D46144649
:10159000102826DB322824DCA0F1100671B243EAC1
:1015A000C402002909DAD6064FEA166C194E01F07A
:1015B0000F073F1F06F807C003E0D606370E164E8A
:1015C000775400BFA0F1100251B201F01F060122B2
:1015D000B2404E09B60006F1E026C6F8002100BF71
:1015E00000BFF0BD10B510280EDB32280CDCA0F1D6
:1015F000100251B201F01F0301229A40074B4C091F
:1016000043F8242000BF00BF10BD10B506F04CF910
:1016100010BD000018ED00E000E400E080E100E013
:1016200010B504460A2C02D10D20FFF78BFE204690
:10163000FFF788FE204610BD10B5FFF7E8FE10BD8D
:1016400010B504462046FFF7EBFF10BD70B5044609
:101650000D4645A120460AF0A7FE10B948F2010048
:1016600070BD43A120460AF09FFE10B948F2020067
:10167000F6E741A120460AF097FE10B948F20300B0
:10168000EEE74FF0FF30EBE70146B1F5004F01DD2B
:10169000002070474FF0FF30FBE72DE9F041044692
:1016A0000D4616461F4648F2020084420AD104E065
:1016B00015F8010BFFF7B4FF761E002EF8D10020BD
:1016C000BDE8F081B4F5004F02DD4FF0FF30F7E7E1
:1016D0004FF0FF30F4E72DE9F04104460E46154681
:1016E0001F4648F2010084420AD104E0FFF7A4FF3C
:1016F00006F8010B6D1E002DF8D10020BDE8F08129
:10170000B4F5004F02DD4FF0FF30F7E74FF0FF3048
:10171000F4E70146B1F5004F01DD012070470020DC
:10172000FCE70246B2F5004F02DD4FF0FF30704794
:101730004FF0FF30FBE70146B1F5004F02DD4FF0FF
:10174000FF3070474FF0FF30FBE70146B1F5004F27
:1017500001DD002070474FF0FF30FBE7034601201A
:101760007047704700BFFEE7535444494E000000E5
:101770005354444F555400005354444552520000B2
:1017800070B50026002503E00020844948556D1CF3
:10179000402DF9D302208249086001208149086068
:1017A0003C20814908704F2048703D2088700020FF
:1017B00000F0F3FCC6B2304600F061FD04460C2E8A
:1017C0000ED17648007840280AD178A00AF0BCF9FA
:1017D0007DA00AF0B9F9214682A00AF0B5F90CE023
:1017E00088A00AF0B1F96D4890F900108EA00AF0B7
:1017F000ABF9214692A00AF0A7F970BD10B52023DD
:1018000060223C21002000F0F5FC8C2360223C216A
:10181000002000F0EFFC032361223C21002000F0B7
:10182000E9FC012362223C21002000F0E3FCE323D9
:1018300063223C21002000F0DDFC10BD10B5202308
:1018400060223C21002000F0D5FC132360223C21C3
:10185000002000F0CFFC022361223C21002000F098
:10186000C9FC7FA00AF070F910BD10B52822874985
:1018700087480AF0FEFC2822864987480AF0F9FCCE
:101880002822864986480AF0F4FC10BD2DE9F04173
:1018900004460D4616460A277C488249096840F8E6
:1018A00021407C487F49096840F821507B487D49A8
:1018B000096840F821607B480068401C794908604D
:1018C00008460068B84203DB00200860FFF7CDFF40
:1018D000BDE8F08170B50025002403E000202F4909
:1018E0000855641C402CF9D302202D4908600620BD
:1018F0002C4908603C202C490870682048703D2025
:101900008870002000F049FCC5B20C2D02D10020E7
:101910006549086000200EE0204A13561646421C16
:10192000B25643EA0222014600EBD1735B105F4ED0
:1019300026F81320801C0628EEDB022018490860D8
:101940000120184908603C2017490870642048703D
:101950003D208870554BB3F90420B3F90210B3F958
:101960000000FFF793FF70BD70B5044620460EF0EF
:1019700071FE05464FF07F510EF084FE70BD70B5CC
:10198000044620460EF066FE06464FF082410EF0F9
:1019900083FD054646490EF01DFD70BDF80A001096
:1019A000D00B0010C40B0010380A00104D61677492
:1019B0006F6D6574657220686173206265656E2065
:1019C000666F756E640A00005375636365736675B0
:1019D0006C6C7920436F6D6D756E696361746564BD
:1019E0000A000000436F6D6D756E69636174696F05
:1019F0006E2053746174757320203A202025730A79
:101A00000000000021212121202D204D41474E457D
:101A1000544F4D45544552204552524F52202D208F
:101A200020212121210A0000493243536C6176654F
:101A300042756666657220203A202025640A0000FF
:101A40004D61676E65746F6D657465722045727265
:101A50006F72205479706520203A202025730A0087
:101A60004D61676E65746F6D65746572204C6F773C
:101A700020506F776572204D6F64652041637469F3
:101A800076617465642E2E2E0A0000003009001065
:101A9000A809001058090010D00900108009001092
:101AA000F809001078000010380100106C000010D8
:101AB0000000C84110B50020F74A1060F7484068A0
:101AC000C1B201F00700002877D1C8100C2874D2E9
:101AD000DFE800F0B4061525AA3D5EB568AB7B973C
:101AE0000020EF4A10601068421CED4B1A60ED4A6E
:101AF000125CEA4B9A6028201A469061A6E000200A
:101B0000E94A1060E64A1068421CE54B1A60E54A53
:101B1000125CE24B9A6028201A46906196E0E348F6
:101B20000068012806D11020DC4A10600720E04A36
:101B3000106008E0DA4A1068421CD94B1A60D94A92
:101B4000125CD64B9A600820D44A90617EE0D74858
:101B50000068D34A1268904209D9D14A1068421CE1
:101B6000CF4B1A60CF4A125CCC4B9A600CE0D14844
:101B7000006818B12020C94A106005E01020C74A4B
:101B800010600C20CA4A10600820C44A90615DE0D1
:101B90001020C24A10600920C54A10600820BF4AC0
:101BA000906153E0C3480268BF480068401C82420D
:101BB00004D90420B94A106003E03FE00420B74A8A
:101BC00090610820B54A906140E0B44A926853B2EF
:101BD000B54A1068421CB44C2260B74A1354B54849
:101BE000026820460068401C824203D90420AB4AA8
:101BF000106002E00420A94A90610820A74A906181
:101C000024E0A64A926853B2A74A1068421CA64C28
:101C10002260A94A13540C20A54A106010209F4A44
:101C200010600820906111E000BF10209B4A1060F6
:101C300008209F4A1060994A906107E000BF0A207F
:101C40009B4A10600820954A906100BF00BF10BDFC
:101C500010B50020904A506098484068C1B201F029
:101C60000700002870D1C8100C286DD2DFE800F002
:101C7000BA061627B04062BB6DB17F9C0020904A27
:101C800010601068421C8E4B1A60864A4032125C0B
:101C90008A4B9A6028201A469061ABE00020894A5E
:101CA0001060874A1068421C854B1A607D4A40329A
:101CB000125C824B9A6028201A4690619AE07B4819
:101CC0004068012806D110207C4A10600720784A1D
:101CD000506009E07A4A1068421C794B1A60714AD8
:101CE0004032125C754B9A600820744A906181E022
:101CF0006E484068724A126890420AD9704A106869
:101D0000421C6F4B1A60674A4032125C6B4B9A6000
:101D10000CE06848406818B12020684A106005E06F
:101D20001020664A10600C20614A50600820634A07
:101D300090615FE01020614A106009205C4A5060A9
:101D400008205E4A906155E04CE05A4842685D4880
:101D50000068401C824203D90420584A106002E007
:101D60000420564A90610820544A906142E0534A48
:101D7000926853B2534A1068421C524C22604E4A39
:101D8000403213544B48426820460068401C82424F
:101D900003D90420494A106002E00420474A9061B8
:101DA0000820464A906125E0444A926853B2454A69
:101DB0001068421C434C22603F4A403213540C20AE
:101DC0003B4A506010203D4A10600820906111E0AD
:101DD00000BF1020394A10600820354A5060374A49
:101DE000906107E000BF0A20314A50600820334A62
:101DF000906100BF00BF10BD10B50020264A906062
:101E000031484068C1B201F00700002872D1C81003
:101E10000C286FD2DFE800F0D5061627CB5E80D6FF
:101E20008ACC9CB80020294A10601068421C274BBD
:101E30001A601C4A8032125C234B9A6028201A4692
:101E40009061C6E00020224A1060204A1068421CBF
:101E50001E4B1A60134A8032125C1B4B9A6028207A
:101E60001A469061B5E011488068012806D110201B
:101E7000154A106007200E4A906009E0134A106866
:101E8000421C124B1A60074A8032125C0E4B9A6059
:101E900008200D4A90619CE02C0A001000C001400F
:101EA00088000010380A00107C000010D00B0010D1
:101EB000200A0010C40B0010F80A001000C00540F2
:101EC0008C0000108000001000000A4090000010FC
:101ED00084000010F8488068F84A126890420AD9D5
:101EE000F64A1068421CF54B1A60F54A125CF54B35
:101EF0009A600DE065E0F448806818B12020F14A4E
:101F0000106005E01020EF4A10600C20EF4A90604E
:101F10000820EC4A90615CE01020EA4A1060092039
:101F2000EA4A90600820E74A906152E0E6488268F9
:101F3000E7480068401C824203D90420E14A10604F
:101F400002E00420DF4A90610820DE4A906140E010
:101F5000DC4A926853B2DE4A1068421CDC4C2260B4
:101F6000DC4A1354D848826820460068401C8242EC
:101F700003D90420D34A106002E00420D14A9061C2
:101F80000820D04A906124E0CE4A926853B2D04AE9
:101F90001068421CCE4C2260CE4A13540C20CB4A0F
:101FA00090601020C74A10600820906111E000BFC7
:101FB0001020C44A10600820C44A9060C14A906151
:101FC00007E000BF0A20C14A90600820BD4A906126
:101FD00000BF00BF10BD014600200022BE4B43F8E9
:101FE00021202022BD4B53F821301A6016E0B74A59
:101FF00052F82120012A01D1012010E0B64A52F8FE
:1020000021206FF07F439A4201D3002007E0B24ABB
:1020100052F82120521CB04B43F82120E7E700BFC3
:10202000704701461020AD4A52F821201060082068
:10203000AA4A52F82120906100BFA84850F8210018
:10204000006800F010000028F7D10120704710B59B
:10205000A348006840F08000A149C439C1F8C40019
:10206000A048406820F480009E49486008464068C7
:1020700020F4000048600846406820F08070486006
:102080000846406820F0007048600846406840F408
:10209000800048600846406820F400004860084618
:1020A000406840F0807048600846406820F000704A
:1020B00048606C208C4988618A48C06F20F0050018
:1020C0008849C86780208849486108610A2000F073
:1020D00059F940208449086010BD10B58048006857
:1020E00040F400207E49C439C1F8C4007D484068EE
:1020F00020F470707B4948600846406840F4707076
:1021000048600846406C20F4707048640846406C93
:1021100040F4207048640846806E40F4C010886621
:102120006C20724988618020486108610B2000F0B2
:1021300029F940206D49086010BD10B56848006855
:1021400040F080606649C439C1F8C4006548006841
:1021500020F47000634908600846006840F42000DD
:1021600008600846006C20F4700008640846006CA3
:1021700040F4200008640846806E40F440608866A1
:102180006C20504988618020486108610C2000F073
:10219000F9F840204B49086010BD014620204F4A05
:1021A00052F8212010600620484A42F8210012E02F
:1021B000494850F821006FF07F42904204D30B2031
:1021C000424A42F821000BE0434850F82100401CED
:1021D000414A42F821003D4850F821000628E7D046
:1021E00000BF20203D4A52F821209061374850F826
:1021F00021007047F0B504460D46164603202E49CF
:1022000041F824000020304941F824002C4980394D
:1022100001EB84110D702A49803901EB84114E7055
:102220002748803800EB841083702046FFF7B5FF05
:1022300007463846F0BD70B503460C4615460220E9
:102240001D4941F8230001201F4941F823001C4982
:10225000803901EB83110C701949803901EB83112E
:102260004D70E0B240F001001549803901EB831157
:1022700088701846FFF791FF0646304670BD02464B
:10228000114609B91AA07047012901D11BA0FAE72C
:10229000022901D11CA0F6E7032901D11EA0F2E713
:1022A000042901D121A0EEE7052901D122A0EAE706
:1022B00006294DD123A0E6E7D00B001090000010B6
:1022C000B80A001000000A40C40B0010200A0010D9
:1022D00084000010780B00102C0A0010340A010052
:1022E000C4C00F4000C0024000C0014000C0054013
:1022F0004932435F49444C45000000004932435F86
:1023000053544152544544004932435F524553545B
:1023100041525445440000004932435F5245504504
:10232000415445445F535441525400004441544188
:102330005F41434B00000000444154415F4E414324
:102340004B0000004932435F4255535900000000E2
:10235000072901D111A096E7082901D112A092E71F
:10236000092901D115A08EE70A2901D118A08AE711
:102370000B2901D11CA086E70C2901D11EA082E700
:102380001FA080E700F01F02012191404209920046
:1023900002F1E022C2F80011704700004932435FA9
:1023A0004E4F5F44415441004932435F4E41434BDD
:1023B0005F4F4E5F41444452455353004932435F9F
:1023C0004E41434B5F4F4E5F44415441000000007B
:1023D0004932435F4152424954524154494F4E5F42
:1023E0004C4F5354000000004932435F54494D455F
:1023F0005F4F5554000000004932435F4F4B0000CF
:10240000554E4B4E4F574E204552524F52000000F2
:1024100070B50026002503E000207E4948556D1C5C
:10242000402DF9D302207C49086001207B490860D7
:1024300040207B4908700C204870412088700020A3
:10244000FFF7ABFEC6B23046FFF719FF04460C2E6D
:102450000FD1704890F90000293050B971A009F0EF
:1024600073FB77A009F070FB21467CA009F06CFBA0
:102470000CE082A009F068FB664890F9001087A084
:1024800009F062FB21468BA009F05EFB70BD70B5C0
:10249000002500244023132219460020FFF7AAFE3E
:1024A00000BF00E0641C42F210708442FADB00BFFF
:1024B000132240210020FFF7BEFE00F04005002D52
:1024C000F6D11F230D2240210020FFF793FE0C239D
:1024D000142240210020FFF78DFE0E2313224021FD
:1024E0000020FFF787FE70BD70B500250024402353
:1024F000132219460020FFF77DFE00BF00E0641C98
:1025000042F210708442FADB00BF13224021002007
:10251000FFF791FE00F04005002DF6D11C23132299
:1025200040210020FFF766FE6AA009F00DFB70BD98
:1025300010B528227149724809F09BFE2822714982
:10254000714809F096FE28227049714809F091FE01
:1025500010BD2DE9F04104460D4616460A2767488E
:102560006C49096840F8214066486A49096840F8A2
:10257000215066486749096840F82160654800684D
:10258000401C6449086008460068B84203DB00202C
:102590000860FFF7CDFFBDE8F08170B5002500248D
:1025A00003E000201B490855641C402CF9D302208D
:1025B0001949086006201949086040201849087028
:1025C00001204870412088700020FFF7E6FDC5B269
:1025D0000C2D02D100205049086000200DE00D4B69
:1025E000421C9A561B5642EA0322014600EBD17365
:1025F0005B104A4E26F81320801C0628EFDB474B61
:10260000B3F90420B3F90210B3F90000FFF7A1FFFA
:1026100070BD0000F80A0010D00B0010C40B0010B1
:10262000380A00104779726F73636F7065206861B4
:1026300073206265656E20666F756E640A00000027
:1026400053756363657366756C6C7920436F6D6D4C
:10265000756E6963617465640A000000436F6D6D97
:10266000756E69636174696F6E20537461747573FC
:1026700020203A202025730A00000000212121217A
:10268000202D204779726F73636F70652045525219
:102690004F52202D2020212121210A00493243536D
:1026A0006C61766542756666657220203A20202549
:1026B000640A00004779726F73636F70652045721A
:1026C000726F72205479706520203A202025730A99
:1026D000000000004779726F73636F7065204C6F64
:1026E0007720506F776572204D6F64652041637469
:1026F0006976617465642E2E2E0A0000DC0B0010D2
:10270000540C0010040C00107C0C00102C0C001059
:10271000A40C0010A0000010340100109400001060
:1027200070B50026002503E00020E94948556D1CDE
:10273000402DF9D30220E74908600120E6490860EE
:102740003820E64908700D20487039208870002034
:10275000FFF723FDC6B23046FFF791FD04460C2E6D
:102760000ED1DB4800782A280AD1DDA009F0ECF967
:10277000E3A009F0E9F92146E8A009F0E5F90CE049
:10278000EEA009F0E1F9D24890F90010F4A009F0A8
:10279000DBF92146F8A009F0D7F970BD10B5002388
:1027A0002A2238211846FFF725FD02232B22382143
:1027B0000020FFF71FFD00232C2238211846FFF7C9
:1027C00019FD01232D2238210020FFF713FD1023CE
:1027D0000E2238210020FFF70DFD1D232A2238216B
:1027E0000020FFF707FD10BD10B500232A22382175
:1027F0001846FFF7FFFC1B232B2238210020FFF790
:10280000F9FCF8232A2238210020FFF7F3FCE3A08B
:1028100009F09AF910BD10B52822EB49EB4809F0F0
:1028200028FD2822EA49EB4809F023FD2822EA493D
:10283000EA4809F01EFD10BD2DE9F04104460D46A1
:1028400016460A27E048E649096840F82140E04872
:10285000E349096840F82150DF48E149096840F838
:102860002160DF480068401CDD49086008460068B8
:10287000B84203DB00200860FFF7CDFFBDE8F08120
:1028800070B586B0002500200390049005900024C8
:1028900003E000208E490855641C402CF9D3022027
:1028A0008C49086006208C49086038208B490870E4
:1028B00001204870392088700020FFF76EFCC5B2F7
:1028C0000C2D02D10020C749086000200EE0804B8B
:1028D000421C9A561B5642EA03221211014600EB93
:1028E000D1735B1001AE26F81320801C0628EEDBA6
:1028F00000209FE001A931F8101001F0010131B171
:1029000003A951F82010491C03AA42F8201001A97C
:1029100031F8101001F0020131B103A951F8201073
:10292000891C03AA42F8201001A931F8101001F007
:10293000040131B103A951F82010091D03AA42F87E
:10294000201001A931F8101001F0080131B103A9DC
:1029500051F82010083103AA42F8201001A931F8DB
:10296000101001F0100131B103A951F820100F31FE
:1029700003AA42F8201001A931F8101001F020013B
:1029800031B103A951F820101F3103AA42F82010D9
:1029900001A931F8101001F0400131B103A951F83B
:1029A00020103F3103AA42F8201001A931F810107D
:1029B00001F0800131B103A951F820107D3103AA43
:1029C00042F8201001A931F8101001F4807131B1E2
:1029D00003A951F82010FA3103AA42F8201001A9E6
:1029E00031F8101001F4007139B103A951F8201029
:1029F00001F5FA7103AA42F8201001A931F810106C
:102A000001F4806139B103A951F8201001F57A7100
:102A100003AA42F8201001A931F8101001F4006156
:102A200039B103A951F82010A1F5FA6103AA42F8BF
:102A30002010401C0328FFF65DAF059A0499039807
:102A4000FFF7FAFE06B070BD10B522223821002033
:102A5000FFF7F1FB1E48007800F01000102818D195
:102A60001B48007800F00800082803D15EA009F098
:102A70006BF802E062A009F067F81548007800F0F2
:102A8000010018B163A009F05FF802E062A009F04C
:102A90005BF80F48007800F02000202815D10C4882
:102AA000007800F00800082803D15CA009F04CF879
:102AB00002E060A009F048F80548007800F0020044
:102AC000022803D153A009F03FF8C1E0BCE00000A8
:102AD000F80A0010D00B0010C40B0010380A0010C8
:102AE000416363656C65726F6D65746572206861C2
:102AF00073206265656E20666F756E640A00000063
:102B000053756363657366756C6C7920436F6D6D87
:102B1000756E6963617465640A000000436F6D6DD2
:102B2000756E69636174696F6E2053746174757337
:102B300020203A202025730A0000000021212121B5
:102B4000202D20414343454C45524F4D455445525D
:102B5000204552524F52202D2020212121210A00B0
:102B6000493243536C617665427566666572202012
:102B70003A202025640A0000416363656C65726F2A
:102B80006D65746572204572726F7220547970653C
:102B900020203A202025730A00000000416363656D
:102BA0006C65726F6D65746572204C6F7720506F25
:102BB000776572204D6F6465204163746976617436
:102BC00065642E2E2E0A0000CC0C0010440D00105F
:102BD000F40C00106C0D00101C0D0010940D001072
:102BE000A80000103001001020202020446F7562E2
:102BF0006C652054617020283229206F6E205800A7
:102C000053696E676C652028312920746170206FCC
:102C10006E205800202B0000202D000020202020B6
:102C2000446F75626C652054617020283229206FD2
:102C30006E20590053696E676C6520283129207415
:102C40006170206F6E205900AFF2340008F07CFFF5
:102C50002D48007800F0400040281BD12A48007819
:102C600000F00800082803D128A008F06DFF02E05A
:102C70002CA008F069FF2448007800F00400042824
:102C800004D1AFF2700008F05FFF03E0AFF278000C
:102C900008F05AFF10BD10B5102238210020FFF7B0
:102CA000CAFA19480078C0F3410030B1012808D0B1
:102CB00002280AD0032810D10BE01FA008F044FF1F
:102CC0000BE021A008F040FF07E023A008F03CFF44
:102CD00003E026A008F038FF00BF00BF0A480078D4
:102CE00000F0010018B126A008F02EFF02E026A097
:102CF00008F02AFF0448007800F0400010B124A03A
:102D000008F022FF10BD0000F80A0010202020204B
:102D1000446F75626C652054617020283229206FE1
:102D20006E205A0053696E676C6520283129207423
:102D30006170206F6E205A00506F727472616974F6
:102D40002075702C20000000506F727472616974DD
:102D500020446F776E2C20004C616E647363617049
:102D6000652052696768742C200000004C616E6415
:102D70007363617065204C6566742C200000000050
:102D80004261636B0A00000046726F6E740A0000B5
:102D90002C205A2D74696C74210A00002DE9F04131
:102DA00004460D464FF00008D748007860B9112C52
:102DB00009D0122C07D0182C05D0192C03D0202CA8
:102DC00001D0212C00D16D0200211020FDF7E3FC81
:102DD00044F0400000F0F5F9280E00F0F2F9C5F3D8
:102DE000074000F0EEF9C5F3072000F0EAF9E8B279
:102DF00000F0E7F9082C03D1872000F0E2F902E0A7
:102E0000952000F0DEF906E04046411C01F0FF0885
:102E1000FE2800DD04E000F0E5F90646FF28F3D0C7
:102E200000BFA6B93A2C12D100F0DCF900F040073F
:102E3000402F03D10120B449087002E00020B249BC
:102E4000087000F0CFF900F0CDF900F0CBF900F0F8
:102E5000C9F901211020FDF79EFC3046BDE8F08144
:102E60002DE9F04106460024A04606E0FF2000F0D0
:102E7000A8F908F1010000F0FF08B8F10A0FF5DB2E
:102E800000211020FDF787FC00BF00210846FFF756
:102E900085FF0546601C84B2202C02DD0120BDE8C0
:102EA000F081012DF1D101211020FDF774FCFF20EC
:102EB00000F087F9FF2000F084F90024022700BF0A
:102EC0004FF4D5710820FFF769FF0546601C84B2F6
:102ED000FE2C03DD01270120307001E0012DEFD130
:102EE00000BF002400BF00213720FFF757FF054631
:102EF0004FF080412920FFF751FF0546601C84B246
:102F0000FE2C01DD0220CAE7002DECD100240020B8
:102F10007D490870022F18D100BF00213A20FFF729
:102F20003DFF0546601C84B2FE2C02DD002030709F
:102F300001E0002DF1D100BF73480078012802D1D3
:102F40000220307001E0012030702846A7E72DE90B
:102F5000F04107460D464FF00008A84600F0F3F890
:102F600000BF3846FFF77CFF0446701CC6B20CB1A8
:102F70004645F6D114B901F0FCF904462046BDE8F7
:102F8000F08170B505460E4629462020FFF706FF62
:102F900004460CB1204670BDA819411E2120FFF740
:102FA000FDFE04460CB12046F5E700212620FFF780
:102FB000F5FE04460CB12046EDE70020EBE72DE9D5
:102FC000F04105460F464FF0000839461120FFF743
:102FD000E5FE064616B13046BDE8F081002110201E
:102FE000FDF7D9FB4FF000080DE04046411C1FFAE9
:102FF00081F84FF6FE71884205DD01211020FDF7B2
:10300000CAFB0120E8E700F0EDF8FE28EDD100242E
:1030100004E000F0E7F82855601C84B2B4F5007FA6
:10302000F7DB00F0DFF800F0DDF800F0DBF801215D
:103030001020FDF7B0FB0020CEE72DE9F041064659
:103040008846002741461820FFF7A8FE054615B11F
:103050002846BDE8F08100211020FDF79CFBFE20F2
:1030600000F0AFF8002404E0305D00F0AAF8601C26
:1030700084B2B4F5007FF7DBFF2000F0A2F8FF2058
:1030800000F09FF800F0AEF8054605F01F00052897
:1030900005D001211020FDF77EFB2846D9E70CE082
:1030A0003846791C8FB24FF6FE71884205DD01214A
:1030B0001020FDF770FB0120CBE700F093F800280B
:1030C000EED001211020FDF766FBFF2000F079F81B
:1030D00000211020FDF75FFB0CE03846791C8FB211
:1030E0004FF6FE71884205DD01211020FDF753FBEC
:1030F0000120AEE700F076F80028EED00121102084
:10310000FDF749FB0020A4E7AC0000103E4A12681E
:10311000C2F3014131B1012908D0022909D00329A4
:103120000FD10AE0394A126890080AE0374A10685D
:1031300007E0364A1268500803E0344A1268D008A3
:1031400000BF00BF704710B503210F20FDF7EAFA5A
:1031500003211220FDF7E6FA03211120FDF7E2FA20
:1031600000211020FDF7DEFA01210F20FDF7FCFA07
:1031700001211220FDF7F8FA00211120FDF7F4FAE1
:1031800001211020FDF7F0FA01211020FDF703FBCB
:103190001D48E438006840F480701D49C1F8C4003F
:1031A000FFF7B4FF1B49B0FBF1F01B49C8603020AA
:1031B0000860084640681949087017488068087018
:1031C00010BD1549886000BF13494968C1F3C0119B
:1031D0000029F9D010494968104A11700E498968D0
:1031E00011707047FF210C4A916000BF0A4949687D
:1031F000C1F3C0110029F9D007494968074A117085
:1032000005498968C8B27047A8C10F400000001086
:1032100000C00F40404B4C0000000240AD000010C9
:103220000146881EF54A1288F54B1B6800FB0230E8
:1032300070472DE9F05F06460C46174698464FF05A
:103240000009A000EF490988B0FBF1F0EE490968D8
:10325000EE4A1288114400EB010BA000E9490988ED
:10326000B0FBF1F201FB12001FFA80FA09E05946A7
:103270003046FFF7A4FE00B906E009F1010000F0B6
:10328000FF09B9F10A0FF2DB00BF06EB0A0527B907
:10329000286820F07040BDE8F09FC5F800805946CE
:1032A0003046FFF7CAFE0020F5E72DE9F047074654
:1032B0000D4605F07F002D1A2E4620E0B000D149C2
:1032C0000988B0FBF1F0D0490968D04A128811444E
:1032D00000EB010949463846FFF771FE00240BE078
:1032E00007EB8408D8F8000020F0704010B93019BE
:1032F000BDE8F087601CC4B2802CF1DB8036C44886
:1033000000688642DAD30020F2E72DE9FF410D463E
:1033100017461E466C46BC480168491C0098FFF7DA
:103320004EFEBC492068884209D1BB49D4F8E4016B
:10333000884204D1B949D4F8FC01884204D04FF046
:10334000FF3004B0BDE8F0813FB9012D02D1D4F8BF
:10335000E801F6E7D4F8EC01F3E7012D02D1C4F857
:10336000E86101E0C4F8EC61A7480168491C0098D5
:10337000FFF763FE4FF0FF30E3E73EB50346002161
:1033800005E0585C2E2800D103E0481CC1B20C298E
:10339000F7DB00BF082901DD04203EBD002204E068
:1033A000985C0DF80200501CC2B28A42F8DB0A4653
:1033B00004E020200DF80200501CC2B2072AF8DDFC
:1033C000481CC1B2082213E0585C30B108464C1CBE
:1033D000E1B2185C0DF8020008E005E02025104677
:1033E000541CE2B20DF800500B2AF7DB501CC2B29D
:1033F0000B2AE9DB002111E01DF80100612808DB40
:103400001DF801007A2804DC1DF80100203858540A
:1034100002E01DF801005854481CC1B20B29EBDB37
:103420000320BAE72DE9F35F0C467D48D0F8008011
:1034300004F23220FFF7A1FF0646042E07D1794897
:103440000068002802D078A008F07EFB7FE0754875
:10345000006810B179A008F077FB552600BF404600
:10346000FFF7DEFE82464FF0000947E00AEB090154
:1034700004F12C00FFF7A3FD4FF0000B35E004F141
:103480002C0000EB0B05287838B96648006810B1AD
:103490006FA008F059FB01262DE02878E52820D000
:1034A000E87A0F281DD0002708E0E95D04F23220F9
:1034B000C05D814200D003E0781CC7B20B2FF4DB63
:1034C00000BF0B2F0DD10AEB0900E060C4F810B06B
:1034D000688BA98A40EA01402062E86960610026A1
:1034E00009E00BF120001FFA80FB46480088834565
:1034F00001DA552EC3D000BF09F101093F48008809
:10350000814501D2552EB1D0552E14D100231A4633
:10351000414604F12C00FFF78CFE8046524880455E
:1035200002D8B8F1000F06D13E48006810B14FA094
:1035300008F00AFB0526552E91D046B9009830B9FF
:10354000688BA98A40EA01406060E86960613046A2
:10355000BDE8FC9F2DE9F05F81460E46154600242C
:10356000A246002740E107EBC700474901EB801066
:1035700090F82D02002840D14FF0010A07EBC70058
:1035800001EB8014012084F82D02494604F2322018
:1035900008F09CFD84F82C62002020606060E061EF
:1035A000E06020616061A0612062A084E08484F812
:1035B0002E0284F831027EB92146FFF733FF2870CE
:1035C0002878002872D01748006810B12FA008F0A2
:1035D000BBFA0020BDE8F09F022E01D0032E65D17A
:1035E00021460120FFF71EFF28702878002876D199
:1035F0000C48006800B15AE05CE0F3E0BE00001047
:10360000B0000010BC000010C4000010C00000108A
:10361000B80000105252614172724161000055AA17
:10362000B400001048010010496E76616C69642096
:1036300066696C654E616D652E2E0A0056616C6977
:10364000642046696C65204E616D652E2E0A00006F
:1036500046696C6520646F6573206E6F74206578B1
:10366000697374212E2E0A00F6FFFF0F4572726FE8
:103670007220696E2067657474696E6720636C756B
:10368000737465722E2E0A00BC0D001046494C451D
:103690005F44454C455445445F4F525F4E4F545F25
:1036A000464F554E442E2E0A0000000091E0FEA029
:1036B00008F04AFA012084F82F02206A60604FF077
:1036C000000B11E000231A4604F12C006168FFF79B
:1036D000B0FD80466FF07041884501D105E027E0DC
:1036E000C4F804800BF1010BECE700BFF948008837
:1036F0000BFB00F0F84A1288616900FB1210F649D2
:103700000988B0FBF1F0A0846068FFF789FDA18C07
:103710000844E06104F12C00E169FFF750FCEE4938
:1037200009886069B0FBF1F201FB1200E08450E00F
:10373000287801284CD100202870E848006810B192
:10374000E7A008F001FA00231A46022104F12C0038
:10375000FFF7DBFD6060E74960680968884202D9CD
:10376000E54800686060DD48006810B1E3A008F03B
:10377000EBF904F12C006168FFF797FD6060606869
:1037800048B9D648006810B1E3A008F0DDF905207B
:10379000287000201EE7D148006810B1E3A008F0AF
:1037A000D3F96FF07043012204F12C006168FFF738
:1037B00040FD6068000C2085A08860850020606165
:1037C0006068FFF72DFDE0610020E084A08400E048
:1037D00000243CB1012007EBC701DA4A02EB81115A
:1037E00081F82D02781CC7B2012F03DABAF1000F5D
:1037F0003FF4B9AEBAF1000F01D10720287020467E
:10380000E8E610B1002180F82D1270472DE9F04153
:1038100007460E461446C4F3080008B9640A02E0DD
:10382000012000EB542404F0070008B9E40802E08A
:10383000012000EBD404C448007880B100231A466C
:1038400001213846FFF761FD05460EB9254400E029
:103850002D1B2B46012211463846FFF756FDBDE8C9
:10386000F0812DE9F14FA448056899E02846FFF75B
:10387000D7FC804600277AE008EB0701B1482C30DE
:10388000FFF79DFB4FF0000B6CE0AE482C3000EBD7
:103890000B04207848B99148006818B1AFF2502065
:1038A00008F052F90120BDE8F88F2078E52857D0BC
:1038B000E07A0F2854D0002607E0A15D0098805DD3
:1038C000814200D003E0701CC6B20B2EF5DB00BFB6
:1038D0000B2E45D18148006810B19CA008F034F946
:1038E000608BA18A40EA0149E520207008EB0701BE
:1038F00094482C30FFF7A1FB002192482C30E2695C
:10390000FFF784FF00231A4602218E482C30FFF770
:10391000FCFC0546A94506D24B46012202218948F6
:103920002C30FFF7F2FC1AE000231A46494685487E
:103930002C30FFF77EFC8246002301224946814855
:103940002C30FFF776FC8448824507D9634800682D
:1039500010B182A008F0F8F80120A4E7D146E3E70F
:103960000BF1200B5C48008883458ED37F1C59489F
:103970000088874280D300231A46294671482C309C
:10398000FFF757FC05467448854200D845B95348AF
:10399000006818B1AFF22C3008F0D6F8012082E7A9
:1039A00064E770B586B00546294601A808F08EFB8D
:1039B00001A8FFF7E2FC0646032E35D14748006810
:1039C00010B16BA008F0C0F800241CE004EBC400A8
:1039D0005C4901EB801090F82D02012811D104EB15
:1039E000C4000A4602EB801000F2322101A808F060
:1039F000DBFC30B93948006810B165A008F0A4F8C4
:103A000003E0601CC4B2012CE0DB00BF012C01DA32
:103A1000062609E03148006810B163A008F094F868
:103A200001A8FFF71EFF0126304606B070BD10B595
:103A3000624800688069614909684969884231D2F1
:103A40005E48006890F82D0201282BD15B48006881
:103A5000C08CB8B959480068808C38B95749096892
:103A60004868FFF7DDFB554909680860534800685E
:103A70000068524A1268928C8118504800682C30B5
:103A8000FFF79DFA4D480068C18C4C4800682C3007
:103A9000445C4A480068C08C401C48490968C88496
:103AA00046488DE0BCE0000046696C6520616C72A0
:103AB00065616479206578697374696E672C20612B
:103AC0007070656E64696E6720646174612E2E0A81
:103AD00000000000BE000010BC00001048010010F3
:103AE0004372656174696E672046696C652E2E0AA3
:103AF00000000000B8000010B4000010736561728F
:103B000063684E65787446726565436C7573746559
:103B1000722E2E0A000000004E6F2066726565202E
:103B2000636C7573746572210A0000006765742FF9
:103B3000536574204E657874436C75737465722E8A
:103B40002E0A0000BC0D0010C800001044656C6512
:103B500074696E672E2E0A00F6FFFF0F46696C65CA
:103B60002064656C65746564212E2E0A00000000D7
:103B7000536561726368696E6720666F72204F706B
:103B8000656E65642046696C652E2E0A0000000093
:103B900046696C6520616C7265616479204F70655F
:103BA0006E65642E2E0A000044656C6574696E674C
:103BB0002046696C652E2E0A00000000740100107A
:103BC00000688069401CFE4909688861FC480068FB
:103BD000C08CB0F5007F24D1F9480068808C401C6F
:103BE000F749096888840020F5490968C884F448C1
:103BF0000068808CF3490988884212D10020F0497E
:103C000009688884EE48006800231A464168EC4839
:103C100000682C30FFF70DFBE9490968486000E0B7
:103C20001A24204610BD10B502210A2240F2DF738B
:103C3000A3F2BC74640244EA42140C43A0B210BD67
:103C400030B50D2128221E23CC0244EA42141F2540
:103C500005EA430544EA050030BD2DE9F04105467B
:103C6000D748006890F82D0201287DD1D44800681B
:103C700090F83102002878D11A2D76D0D04800680B
:103C800090F8300201281AD10A21CD480068C28C70
:103C9000CB480068C08C401CC94B1B68D884C848FE
:103CA00000682C308154C64800684069401CC449F3
:103CB000096848610020C249096881F83002082D6E
:103CC00012D1BF480068C08C18B3BD480068C08CD2
:103CD000401EBB490968C884B94800684069401E55
:103CE000B7490968486114E0B5480068C18CB44818
:103CF0000068C08C401CB24A1268D084B04800688A
:103D00002C304554AE4800684069401CAC490968F5
:103D100048610D2D21D1AA480068C08CB0F5007F04
:103D200005D10120A649096881F8300215E00A2171
:103D3000A3480068C28CA2480068C08C401CA04BFD
:103D40001B68D8849E4800682C3081549C480068C9
:103D50004069401C9A490968486199480068C08CCC
:103D6000B0F5007F00DB01E0E2E165E0002094496E
:103D70000968C88492480068C169914800682C307D
:103D8000FFF75BF98E480068808C401C8C490968FD
:103D900088848B480068808C8A490988884243D18E
:103DA00000208749096888848548006840688449FC
:103DB00009688860824800688168814800682C3002
:103DC000FFF773FA7E49096848607D4800684068DB
:103DD00038B97D48006810B17CA007F0B5FEBDE899
:103DE000F08177480068436875480068012281685F
:103DF000734800682C30FFF71CFA714800686FF0B8
:103E00007043012241686E4800682C30FFF711FAB8
:103E10006B4909684868FFF703FA69490968C8618E
:103E2000002067490968C88465480068C069401C6B
:103E300063490968C8617BE16148006890F8310214
:103E40000028F8D101205E49096881F831020EE0AE
:103E500000215B480068C28C594800682C308154AE
:103E600057480068C08C401C55490968C8845448AC
:103E70000068C08CB0F5007FEADB51480068C1697A
:103E80004F4800682C30FFF7D8F84D4800680122F1
:103E9000022143684A4800682C30FFF736FA484848
:103EA000006890F82F0268B345480068C16844482C
:103EB00000682C30FFF783F84148006801694048EA
:103EC00000682C300C183E4800684069E169471AC8
:103ED0003B4800684069E06139480068C16838487B
:103EE00000682C30FFF7A9F83A46012134480068F1
:103EF0002C30FFF78BFC3448006810B138A007F075
:103F000023FE6CE73B4800682D49096888600EE194
:103F10002B4909688868FFF783F92949096808600F
:103F20000020274909688884A3E0254800680068C4
:103F3000234A1268928C8118214800682C30FFF7C0
:103F40003EF800201E490968C88483E01C480068C8
:103F5000C18C1B4800682C300C181948006890F878
:103F60002E0210B10020207039E7207810B120789F
:103F7000E52868D1002607E01148006800F23220E9
:103F8000805DA055701CC6B20B2EF5DB2020E072C0
:103F9000002020736073FFF753FEE081FFF743FEBC
:103FA0002082FFF740FE6082FFF74AFEE082FFF7C3
:103FB0003AFE208302480068008DA08200481BE082
:103FC00074010010BE000010480100104E6F206602
:103FD00072656520636C7573746572212E2E0A00FC
:103FE00046696C6520617070656E646564212E2E73
:103FF0000A000000B40000100068408D6083FE4895
:1040000000684069E061FC4800680068FA4A12688C
:10401000928C8118F84800682C30FFF70EF80120C8
:10402000F549096881F82E02F448006810B1F4A03F
:1040300007F08AFDF048006801214269EE480068F7
:104040002C30FFF7E3FBEC480068C08C2030EA49D5
:104050000968C884E8480068C08CEE49098888422D
:10406000FFF674AFE4480068808C401CE2490968A0
:104070008884E1480068808CE74909888842FFF617
:1040800054AFDD48006800231A468168DA480068AA
:104090002C30FFF7CEF8D84909684860D648006848
:1040A0004068DE49884230D9D348006840686FF0E4
:1040B0007041884222D1D04800688168CE480068AB
:1040C0002C30FFF7F2F8CC4909684860CA4800680C
:1040D0004368C948006801228168C74800682C30DD
:1040E000FFF7A7F8C44800686FF0704301224168E9
:1040F000C14800682C30FFF79CF806E0BF48006814
:1041000010B1C7A007F020FD69E6BB480068406811
:1041100038B9BA48006818B1AFF6B02007F014FDFE
:104120005DE6B54800684068B34909688860EFE615
:1041300000BF54E62DE9F04105460027BE4800685F
:10414000401CB0B9BD480068BB4908600020BC49AC
:104150000860BC490880B8480068FFF761F8BA49B0
:10416000086008460068B64A12688118B748FEF72A
:1041700026FF00BFB548B34909884418207868B9BC
:104180009E48006818B1AFF6383007F0DDFC4FF0FC
:10419000FF30A94908600920BDE8F0812078E528B2
:1041A0001ED0E07A0F281BD0002612E0082E05D181
:1041B0002E223846791CCFB2291D0A54A05D202832
:1041C00005D0A25D3846791CCFB2291D0A54701C57
:1041D000C6B20B2EEADB0021281DC155E06928601C
:1041E0009848008820309749088008460088894907
:1041F0000988884248DB002092490880904800687E
:10420000401C8F4908600846006883490988884235
:1042100032D100208A49086000231A468648016886
:104220008A48FFF706F884490860084600687B4919
:1042300088420BD97148006810B185A007F084FC52
:104240004FF0FF307C4908600920A5E77A480068F4
:1042500060B96A48006818B1AFF6F03007F074FC36
:104260004FF0FF3074490860092095E772480068F4
:10427000FEF7D6FF7449086073480068704A1268F8
:1042800081187248FEF79BFE002F3FF473AF0820A1
:1042900082E72DE9F05F05460E4600277148006869
:1042A0005D4909884843800A28605A490988286876
:1042B0004843286000231A4601216448FFF725F887
:1042C000074668480068874238D900206649087068
:1042D000002780465948D0F800902DE04FEA890029
:1042E0004C490988B0FBF1F060490968604A1288BE
:1042F000114400EB010A51465448FEF760FE0024C9
:1043000012E0524800EB840BDBF8000020F0704014
:1043100000B97F1C08F1010852480068801C8045E4
:1043200000D103E0601CC4B2802CEADB00BF802C0B
:1043300000DA02E009F18009D0E700BF36480088C2
:104340007843800A306033490988306848433060D8
:10435000BDE8F09F30B502460B460020002105E085
:10436000545CCD00AC4020444C1CE1B29942F7DBD8
:1043700030BD2DE9F04100203C4908600021334860
:10438000FEF71DFE314C2078E92820D02078EB285C
:104390001DD02646B6F8FE014AF65521884202D0C5
:1043A0000320BDE8F08104213248FFF7D3FF2F49F5
:1043B0000860084601682548FEF701FE234C207876
:1043C000E92804D02078EB2801D00320E9E7022176
:1043D00004F10B00FFF7BEFF0E490880607B0E4919
:1043E0000880022104F10E00FFF7B4FF2049088085
:1043F000042104F12C003FE074010010480100107A
:1044000046696C652043726561746564212E2E0ACD
:1044100000000000BC000010BE000010F6FFFF0FFF
:10442000456E64206F6620436C757374657220431B
:104430006861696E2E2E0A00CC000010B4000010D6
:10444000D0000010D8000010D4000010E80D0010BB
:10445000456E64206F6620436C75737465722E2EF2
:104460000A000000B8000010C8000010C4000010CE
:10447000C0000010AE0F0010FFF76CFF1E4908606F
:10448000042104F11C00FFF765FF1C490988471847
:10449000042104F12400FFF75DFF217C01FB007083
:1044A00017490860042104F12000FFF753FF134966
:1044B0000988471A042104F12400FFF74BFF217CEF
:1044C00001FB10750F480088B5FBF0F00E4908603D
:1044D00000231A4601210D48FEF717FF0A49096813
:1044E000884203D900200A49087002E001200849E7
:1044F0000870002055E70000B4000010C000001054
:10450000B0000010BE000010B8000010E80D001050
:10451000C800001070B506460C46601CF9490968D1
:10452000884705460DB9002070BD00202855224659
:104530003146284607F00CFF2846F5E770B50446DB
:10454000204607F0E7FD054629462046FFF7E2FF33
:1045500070BD0146302904DB392902DCA1F13000AD
:104560007047612904DB662902DCA1F15700F7E7F7
:10457000412904DB462902DCA1F13700F0E74FF0C6
:10458000FF30EDE72DE9F04704468946207828B151
:10459000607818B1A07808B1E07810B90020BDE8C3
:1045A000F0872078FFF7D5FF06466078FFF7D1FF48
:1045B0000746A078FFF7CDFF8046E078FFF7C9FFF8
:1045C0000546701C30B1781C20B108F1010008B11B
:1045D000681C08B90020E2E7300340EA072040EAFF
:1045E00008102843C9F800000120D8E70146C02977
:1045F00007D0C12905D0F42903DC01F0C0008028D0
:1046000001D10020704701F0800008B90120F9E7CE
:1046100001F0E000C02801D10220F3E701F0F00032
:10462000E02801D10320EDE701F0F800F02801D1E6
:104630000420E7E70020E5E770B504460E460025B4
:104640002078FFF7D3FF30603068012801D125784A
:104650004CE0306802280CD1607800F0C00080285F
:1046600007D1207800F01F05607865F39F1005469C
:104670003CE03068032815D1607800F0C000802845
:1046800010D1A07800F0C00080280BD1207800F075
:104690000F05607865F39F100546A07865F39F10BD
:1046A000054623E0306804281ED1607800F0C00081
:1046B000802819D1A07800F0C000802814D1E078BB
:1046C00000F0C00080280FD1207800F00705607846
:1046D00065F39F100546A07865F39F100546E078C6
:1046E00065F39F10054601E0002070BD802D02D2C9
:1046F000306801280BDCB5F5006F02D23068022863
:1047000005DCB5F5803F04D23068032801DD0020C8
:10471000EBE7B5F5881F01D30020E6E7B5F5584F64
:1047200004D3B5F5604F01D20020DEE70120DCE7BD
:10473000F8B504460D4600200090661908E0694669
:104740002046FFF779FF08B90020F8BD009804441F
:10475000B442F4D30120F8E770B504460D46012DAC
:1047600007D92078302804D160782E2801D0002085
:1047700070BD022D0AD9022263A1204607F0E9FC90
:1047800020B9A0782E2801D00020F1E706E0615D75
:104790005EA007F07FFC08B10020E9E7281EA5F124
:1047A0000105F4D10120E3E72DE9F047814658A146
:1047B000484607F022FC06460027B84616B90020F6
:1047C000BDE8F08702220021304607F007FB3046A3
:1047D00007F080FB0446002C04DA304607F034FC76
:1047E0000020EDE72746304607F0ACFB781C454932
:1047F00009688847054625B9304607F025FC0020A2
:10480000DEE733463A460121284609F0E4F88046BF
:10481000B8F1000F03D0304607F0CBFA40B1304674
:1048200007F012FC28463B49096888470020C7E783
:10483000304607F009FC002005F808002846BFE7CD
:104840002DE9F74F82B0044617464FF0000B0020C9
:1048500001908046039807F05DFC0646384607F055
:1048600059FC824616B1BAF1000F02D105B0BDE87D
:10487000F08F40E0B9F15C0F05D1019818B9012023
:104880000190641C37E0B9F1220F09D1019838B9C1
:10489000BBF1000F01D1012000E00020834626E09B
:1048A000BBF1000F23D132462046039907F051FC9B
:1048B000E8B9002502E0202060556D1CB542FAD30E
:1048C00034443946204607F0EFFB8046B8F1000F2C
:1048D00000D1CBE7002502E0202060556D1CA8EB3D
:1048E00004005044A842F7D808EB0A00441E0020F8
:1048F0000190641C00BF94F80090B9F1000FB9D189
:1049000000BFB3E7DC0000102D3000007858000035
:1049100072000000E000001070B505461420FA494E
:104920000968884704460CB9002070BD2560002046
:104930006060A0602061E0602046F6E701460868FC
:1049400070472DE9F04104460D46002600276068B7
:1049500008B9A06820B9606808B1A06800B11DB9A5
:104960004FF0FF30BDE8F081A800E74909688847AB
:10497000064616B94FF0FF30F4E7A800E24909688F
:104980008847074637B93046E049096888474FF0FD
:10499000FF30E7E7606878B1A06868B1E06858B1B7
:1049A000E06882003046616807F063FCE0688200DE
:1049B0003846A16807F05DFCD449606809688847FB
:1049C000D249A068096888476660A7602561002011
:1049D000C8E7014609B1C86870470020FCE72DE927
:1049E000F041054688461746002417E0696851F8EB
:1049F000240007F08FFB0646BE4200D00DE0696838
:104A000051F824003A46414607F0A3FB20B9A868B4
:104A100050F82400BDE8F08100BF641C2846FFF771
:104A2000D8FFA042E2D80020F4E72DE9F047044681
:104A30000E4690461D4600270CB106B11DB94FF039
:104A4000FF30BDE8F087424631462046FFF7C7FFFA
:104A500010B14FF0FF30F4E7D4E90301884213D3DB
:104A600010212069B1EB400F02D22069400000E024
:104A70001020814649462046FFF763FF401C10B9CD
:104A80004FF0FF30DDE700BFE76841463046FFF7F3
:104A900041FD616841F82700606850F8270010B9AF
:104AA0004FF0FF30CDE72046FFF748FF2860A068B1
:104AB00040F82750E068401CE0600020C1E72DE985
:104AC000F04106460C4615461CB94FF0FF30BDE8D4
:104AD000F081204607F01EFB07462B463A4621464A
:104AE0003046FFF7A2FFF2E770B50446002505E067
:104AF000616851F8250000F034F86D1CA068A842E8
:104B0000F6D8824960680968884720467F49096865
:104B1000884770BD70B5044600250BE0616851F808
:104B200025007A4909688847A16851F8250000F0F6
:104B300018F86D1CE068A842F0D8744960680968EC
:104B400088477249A0680968884720466F49096804
:104B5000884770BD014609B1486870474FF0FF3083
:104B6000FBE710B504462046FFF7F4FF022808D003
:104B7000042802D005280DD108E0A068FFF7CAFF7D
:104B800009E06249A0680968884704E0A068FFF767
:104B9000ABFF00E000BF00BF20465C4909688847C2
:104BA00010BD70B505460C4605B10CB9002070BDAE
:104BB000204607F0AFFA0646324621462846FFF760
:104BC0000EFFF4E72DE9F04104468846174600251C
:104BD000002624B141462046FFF7E3FF18B94FF005
:104BE000FF30BDE8F0812046FFF7F3FE461E0025AA
:104BF00026E0616851F82500414607F0D5FBF0B981
:104C0000616851F8250041490968884727B1A168C2
:104C100051F82500FFF7A5FFB5420BD0606850F8AA
:104C20002600616841F82500A06850F82600A168B8
:104C300041F82500E068401EE0600020D1E76D1CCF
:104C40002046FFF7C6FEA842D3D84FF0FF30C8E792
:104C500000B502461046FFF77DFF042801D1906899
:104C600000BD0020FCE72DE9F04706460C4617463C
:104C70004FF00008C1462E21204607F00BFA0546EA
:104C800035B93A4621463046FFF79CFFBDE8F0872C
:104C90002A1B21463046FFF7A2FE80464046FFF71A
:104CA00059FF042802D04FF0FF30EFE74046FFF7EE
:104CB000CFFF81463A46691C4846FFF7D4FFE5E737
:104CC00070B50546102010490968884704460CB99C
:104CD000002070BD256000206060E060A06020467C
:104CE000F7E701460868704770B504460D46002690
:104CF0000DB9701E70BDA8000349096888470646B3
:104D000036B94FF0FF30F5E7DC000010E00000108E
:104D1000606838B1A06828B1A06882003046616838
:104D200007F0A7FAF8496068096888476660E56097
:104D30000020DFE770B504460D46D4E90201884241
:104D400013D31021E068B1EB400F02D2E0684000BD
:104D500000E01020064631462046FFF7C5FF401C04
:104D600010B94FF0FF3070BD00BF2046FFF7B9FF0C
:104D70002860D4E9010140F82150A068401CA060DF
:104D80000020F0E770B505461020E0490968884723
:104D900004460CB9002070BD002020600220606035
:104DA000A5602046F7E7014608680078222802D06F
:104DB0004FF0FF3070470868401C086015E0086835
:104DC000007810B94FF0FF30F4E7086800785C28ED
:104DD00008D10868401C08600868007810B94FF0D6
:104DE000FF30E7E70868401C086008680078222860
:104DF000E5D10868401C08600020DBE72DE9FC478E
:104E000006460F464FF000093C6835686D1C01A945
:104E10002846FFF7B7FB8146B9F1000F03D14FF0E9
:104E2000FF30BDE8FC870198802802D201982070ED
:104E30007DE00198B0F5006F0DD20198C0F38410A9
:104E400040F0C0002070019800F03F0040F080006A
:104E50006070641C6BE00198B0F5584F03D3019863
:104E6000B0F5604F13D30198C0F3033040F0E00079
:104E700020700198C0F3851040F0800060700198A8
:104E800000F03F0040F08000A070A41C4FE00198AB
:104E9000B0F5584F48D30198B0F55C4F44D2DDF8D7
:104EA00004802D1D15F8011B5C2903D115F8011B89
:104EB000752902D04FF0FF30B3E769462846FFF767
:104EC00061FB8146B9F1000F07D00098B0F55C4F47
:104ED00003D30098B0F5604F02D34FF0FF30A0E746
:104EE000C8F309010098A0F55C4061F39F2000F52C
:104EF000803001900198C0F3824040F0F0002070B3
:104F00000198C0F3053040F0800060700198C0F354
:104F1000851040F08000A070019800F03F0040F044
:104F20008000E070E41C02E04FF0FF3079E7ED1CF8
:104F30003C603560002074E72DE9FC4705460E46CD
:104F4000019506F101090027002400200090804609
:104F500048466E4909688847044604B97AE00094D7
:104F600056E0019800785C2843D10198401C0190DC
:104F700001980078662822D008DC22280FD02F283C
:104F800015D05C280FD0622831D114E06E281AD0D9
:104F900072281CD074281ED0752828D11FE022202A
:104FA0000099087024E05C200099087020E02F2010
:104FB000009908701CE008200099087018E00C2087
:104FC0000099087014E00A200099087010E00D2084
:104FD000009908700CE009200099087008E0694603
:104FE00001A8FFF70BFF401C00B933E000E031E0FF
:104FF00008E001980078202800DA2BE0019800787A
:10500000009908700098401C00900198401C019085
:105010000198007818B10198401BB042A1D300203C
:10502000009908700098001B471C384637490968EA
:1050300088478046B8F1000F00D10BE03A46214680
:10504000404607F0D1F820462F4909688847404676
:10505000BDE8FC8720462C49096888470020F7E70F
:105060002DE9F0410446256800262046FFF79BFE07
:10507000074617B10020BDE8F0812068401B861E5E
:105080003146681CFFF758FFF5E710B510201F499F
:105090000968884704460CB9002010BD0020206034
:1050A000012060602046F8E770B5044604252A46D2
:1050B00017A0216807F04DF828B92068284420601F
:1050C000FFF7E3FF70BD0020FCE77CB504460D460A
:1050D0000026CDE90045DDE900210AB1012200E00A
:1050E000002241EA020020F000410B4A511AC90F88
:1050F000B1B9CDE9004551000198B1EB400F0DD198
:10510000009858B901200AE0E0000010DC0000100F
:105110006E756C6C000000000000F07F002008B18C
:1051200000207CBD1020FC490968884706460EB95E
:105130000020F6E70020306003207060C6E90245D9
:105140003046EEE7F8B5044600BFFBF7A1F80021B2
:105150000160694620680AF0F1FA05460E46FBF741
:1051600097F8006830B92268009B991A1046FFF73B
:10517000F3FA08B90020F8BD0098206028463146AF
:10518000FFF7A3FFF7E770B505461020E24909686D
:10519000884704460CB9002070BD0020206006201E
:1051A00060600DB1012000E00020A0602046F3E720
:1051B00070B50446042505262A46D8A0216806F0C5
:1051C000C8FF30B92068284420600120FFF7DBFFCA
:1051D00070BD3246D3A0216806F0BBFF30B920680D
:1051E000304420600020FFF7CEFFF1E70020EFE71A
:1051F00070B5064600243046FFF732FF05460DB96C
:10520000002070BD2846FFF7BDFD04462CB9284696
:10521000C649096888470020F3E72046F1E70146C0
:1052200009B1886870470020FCE700B502461046C7
:10523000FFF790FC052801D1906800BD0020FCE735
:1052400010B51020B4490968884704460CB90020FD
:1052500010BD00202060052060602046FFF730FD73
:10526000A060A06828B92046B04909688847002096
:10527000EEE72046ECE72DE9F04704460F4600260E
:105280000025A846FFF7DCFF064616B90020BDE85A
:10529000F087206800785B2804D03046FFF761FC77
:1052A0000020F4E73046FFF7C0FF80462068401C2E
:1052B000206002E02068401C2060FAF7E1FF0068EF
:1052C00021680978405C00F001000028F2D12068D4
:1052D00000785D2804D12068401C20603046D6E765
:1052E0003CE03946204600F060F9054625B93046D5
:1052F000FFF737FC0020CAE729464046FFF71AFDB2
:10530000401C38B92846FFF72CFC3046FFF729FC33
:105310000020BCE702E02068401C2060FAF7B0FFE4
:10532000006821680978405C00F001000028F2D193
:10533000206800782C2800D014E02068401C2060F1
:1053400002E02068401C2060FAF79AFF006821689C
:105350000978405C00F001000028F2D12068007854
:105360000028BED100BF02E02068401C2060FAF790
:1053700087FF006821680978405C00F00100002880
:10538000F2D1206800785D2809D14046FFF747FF39
:10539000814649464046FFF7A7FC401C20B93046ED
:1053A000FFF7DFFB002072E72068401C20603046DA
:1053B0006DE710B5102058490968884704460CB9B4
:1053C000002010BD00202060042060602046FFF710
:1053D000A3FAA060A06828B9204654490968884704
:1053E0000020EEE72046ECE72DE9F047044688462A
:1053F00000270025A9460026FFF7DBFF074617B95F
:105400000020BDE8F087206800787B2804D038466B
:10541000FFF7A7FB0020F4E73846FFF719FC8146A9
:105420002068401C206002E02068401C2060FAF7E1
:1054300027FF006821680978405C00F0010000281F
:10544000F2D1206800787D2804D12068401C2060BB
:105450003846D6E77DE02046FFF702FE064626B92D
:105460003846FFF77EFB0020CBE702E02068401CB7
:105470002060FAF705FF006821680978405C00F0B9
:1054800001000028F2D1206800783A2808D0304680
:105490002649096888473846FFF763FB0020B0E7D4
:1054A0002068401C20604146204600F07EF80546FA
:1054B00045B930461D49096888473846FFF751FB12
:1054C00000209EE72A4631464846FFF7F8FA401C7E
:1054D00058B930461549096888472846FFF741FB07
:1054E0003846FFF73EFB00208BE730460F4909683E
:1054F000884702E02068401C2060FAF7C1FE00687F
:1055000021680978405C00F001000028F2D1206891
:1055100000782C280CD021E0DC0000107472756536
:105520000000000066616C7365000000E000001080
:105530002068401C206002E02068401C2060FAF7D0
:105540009FFE006821680978405C00F00100002897
:10555000F2D12068007800287FF47DAF00BF02E020
:105560002068401C2060FAF78BFE006821680978EB
:10557000405C00F001000028F2D1206800787D280E
:1055800009D14846FFF725FA824651464846FFF7BB
:10559000D8F9401C20B93846FFF7E3FA002030E77D
:1055A0002068401C206038462BE770B504460D4645
:1055B000B5F5006F01D9002070BD02E02068401CE5
:1055C0002060FAF75DFE006821680978405C00F011
:1055D00001000028F2D12068007836283FD012DC84
:1055E000322838D008DC222829D02D2830D0302885
:1055F0002FD031283ED12DE033282DD034282CD087
:10560000352837D12AE066281DD008DC372827D076
:10561000382826D0392825D05B282BD10AE06E28DF
:1056200024D0742810D07B2824D1691C2046FFF791
:10563000DBFEC1E7691C2046FFF71DFEBCE72046E4
:10564000FFF7D6FDB8E700BF2046FFF7B1FDB3E78F
:1056500000BF00BF00BF00BF00BF00BF00BF00BF52
:1056600000BF00BF2046FFF76DFDA5E72046FFF70E
:105670001BFDA1E700209FE770B505460C461DB94C
:10568000204606F047FD70BD2246F8A1284606F0E8
:1056900067FAF8E700B502461046FFF75BFA032801
:1056A00002D1D2E9020100BD00200146FBE700B5AE
:1056B00002461046FFF74EFA062801D1906800BD59
:1056C0004FF0FF30FBE72DE9F04780460D460027FD
:1056D000404606F01FFD8246B9467C1E002600BFEC
:1056E000E3A12846FFF7C8FF0446002C02DA701E2B
:1056F000BDE8F08705B12544264400BF0027EDE250
:1057000018F80790B9F1110F72D00DDCB9F1110F33
:105710006FD2DFE809F0AABACADAF2F0EFEE5299D6
:1057200074ED6285ECEBEA00B9F11A0F72D009DC76
:10573000A9F112000828EBD2DFE800F0F1F0EFEE5B
:10574000EDECEBEAB9F11F0F75D00CDCB9F11B0FD2
:1057500072D0B9F11C0F70D0B9F11D0F6ED0B9F134
:105760001E0F46D170E2B9F1220F06D0B9F12F0F0A
:1057700075D0B9F15C0FF4D10FE000BFBDA1284690
:10578000FFF77AFF0446002C02DA4FF0FF30AFE754
:1057900005B12544264400BF9EE200BFB6A12846BD
:1057A000FFF76AFF0446002C02DA4FF0FF309FE754
:1057B00005B12544264400BF8EE200BFAFA12846B4
:1057C000FFF75AFF0446002C02DA4FF0FF308FE754
:1057D00005B12544264400BF7EE200BFA8A12846AB
:1057E000FFF74AFF0446002C04DA4FF0FF307FE752
:1057F0000BE16BE205B12544264400BF6CE200BF1B
:10580000A0A12846FFF738FF0446002C03DA4FF02A
:10581000FF306DE7D8E105B12544264400BF5BE2C7
:1058200000BF99A12846FFF727FF0446002C06DA9F
:105830004FF0FF305CE717E2D6E1E5E1F4E105B1B6
:105840002544264400BF47E200BF90A12846FFF749
:1058500013FF0446002C03DA4FF0FF3048E713E251
:1058600005B12544264400BF36E200BF88A1284682
:10587000FFF702FF0446002C02DA4FF0FF3037E753
:1058800005B12544264400BF26E200BF82A1284678
:10589000FFF7F2FE0446002C02DA4FF0FF3027E754
:1058A00005B12544264400BF16E200BF7CA128466E
:1058B000FFF7E2FE0446002C02DA4FF0FF3017E754
:1058C00005B12544264400BF06E200BF76A1284664
:1058D000FFF7D2FE0446002C02DA4FF0FF3007E754
:1058E00005B12544264400BFF6E17EE06DE05CE0B2
:1058F0004BE03AE029E018E0FFE700BF6CA1284642
:10590000FFF7BAFE0446002C0ADA4FF0FF30EFE64C
:105910004AE139E128E117E106E1F5E095E084E0AC
:1059200005B12544264400BFD6E100BF62A1284648
:10593000FFF7A2FE0446002C02DA4FF0FF30D7E654
:1059400005B12544264400BFC6E100BF5CA128463E
:10595000FFF792FE0446002C02DA4FF0FF30C7E654
:1059600005B12544264400BFB6E100BF56A1284634
:10597000FFF782FE0446002C02DA4FF0FF30B7E654
:1059800005B12544264400BFA6E100BF50A128462A
:10599000FFF772FE0446002C02DA4FF0FF30A7E654
:1059A00005B12544264400BF96E100BF4AA1284620
:1059B000FFF762FE0446002C02DA4FF0FF3097E654
:1059C00005B12544264400BF86E100BF44A1284616
:1059D000FFF752FE0446002C02DA4FF0FF3087E654
:1059E00005B12544264400BF76E100BF3EA128460C
:1059F000FFF742FE0446002C02DA4FF0FF3077E654
:105A000005B12544264400BF66E100BF38A1284601
:105A1000FFF732FE0446002C02DA4FF0FF3067E653
:105A200005B12544264400BF56E100BF32A12846F7
:105A3000FFF722FE0446002C02DA4FF0FF3057E653
:105A400005B12544264400BF46E100BF2CA12846ED
:105A5000FFF712FE0446002C02DA4FF0FF3047E653
:105A600005B12544264400BF36E10000257300003F
:105A7000220000005C2200005C5C00005C62000010
:105A80005C6600005C6E00005C7200005C740000EC
:105A90005C753030303000005C75303030310000E3
:105AA0005C753030303200005C75303030330000CF
:105AB0005C753030303400005C75303030350000BB
:105AC0005C753030303600005C75303030370000A7
:105AD0005C753030306200005C753030306500003D
